:020000040000FA
:0400000081EF00F09C
:1000080034011C011C011C0140001C0140001C01A2
:100018001C011C011C011C011C011C011C011C01F0
:100028001C014000400040001C011C011C011C0177
:100038001C011C011C012D01E0001C011C011C01FC
:100048001C011C011C011C01400040001C011C017A
:100058001C011C011C0140001C011C011C011C018D
:100068001C011C011C011C011C011C011C011C01A0
:100078001C011C011C011C0140001C011C011C016D
:100088001C011C011C011C011C011C011C011C0180
:100098001C011C011C011C0140001C014000400007
:1000A8001C011C011C011C011C011C011C011C0160
:1000B8001C011C011C011C011C011C011C011C0150
:1000C8001C011C011C011C011C011C011C011C0140
:1000D8001C011C011C011C011C011C011C011C0130
:1000E80040001C011C011C01400040004000400071
:1000F8001C011C011C011C01FF0064EF01F080833E
:1001080086898C8F9295989B9EA2A5A7AAADB0B31D
:10011800B6B9BCBEC1C4C6C9CBCED0D3D5D7DADC3C
:10012800DEE0E2E4E6E8EAEBEDEEF0F1F3F4F5F612
:10013800F8F9FAFAFBFCFDFDFEFEFEFFFFFFFFFFEC
:10014800FFFFFEFEFEFDFDFCFBFAFAF9F8F6F5F4FA
:10015800F3F1F0EEEDEBEAE8E6E4E2E0DEDCDAD734
:10016800D5D3D0CECBC9C6C4C1BEBCB9B6B3B0AD69
:10017800AAA7A5A29E9B9895928F8C898683807C3E
:10018800797673706D6A6764615D5A5855524F4C41
:10019800494643413E3B393634312F2C2A28252302
:1001A800211F1D1B1917151412110F0E0C0B0A090C
:1001B8000706050504030202010101000000000012
:1001C80000000101010202030405050607090A0BE4
:1001D8000C0E0F1112141517191B1D1F212325288A
:1001E8002A2C2F313436393B3E414346494C4F5235
:1001F80055585A5D6164676A6D707376797C21EE33
:100208007CF111EE09F11B0EDBC4E3F4E806FCE215
:1002180021EE60F111EE25F11B0EDBC4E3F4E806D4
:10022800FCE25050020D250EF324D96E050EF42081
:10023800DA6EDE504D5CDE504E58D8B026EF01F035
:1002480028EF01F03EEF01F05050020D090EF324A3
:10025800D96E050EF420DA6E610078F302F56100BC
:1002680074F303F5010E046E96EC01F04D4A4E2A24
:1002780063EF01F0000E4E6E000E4D6E000E036E21
:10028800000E026E010E046E96EC01F04D4A4E2AE5
:100298004E5009E1320E4D5CD8A055EF01F057EFF2
:1002A80001F042EF01F0502A0E0E5018D8A45FEF6B
:1002B80001F061EF01F063EF01F0000E506E1200E3
:1002C800060EF66E010EF76E000EF86E01EE00F2E5
:1002D80010EE00F10900F5C4EEF4E550E150FAE142
:1002E800E250F8E1BA0EF66E030EF76E000EF86EE5
:1002F80001EE60F110EE38F00900F5C4EEF4E550B7
:10030800E150FAE101EE41F1140EEE6AE806FDE172
:100318000401080E5D6F000E5E6F000E5F6F000136
:1003280013EF02F003011E91800E035CD8A09FEF2B
:1003380001F0A1EF01F0A4EF01F07F0E036E026857
:10034800021C056E031C066E0650526E05C551F55B
:10035800610048F51DF3610044F51CF35390045007
:10036800D8B4B9EF01F0BBEF01F0BCEF01F0538056
:10037800B198A1881E811200610048F51DF3610043
:1003880044F51CF3040E4F26000E4F24D96EDA6A8A
:10039800060EDA22DF5000017D6FB19853B0D7EF17
:1003A80001F0D9EF01F0DCEF01F0A19803011E91F3
:1003B8001100000200020002000200020002000414
:1003C80000020002000200020002000200043C00D9
:1003D8003C00280028002400240028002D002D00BF
:1003E8002F002F00350035003C00000E496E000E2E
:1003F8004A6E000E4B6E000E4C6E000E456E000EDF
:10040800466E000E476E000E486E7D0E0301236F88
:10041800010E266FB196F00E246FA1861200548E3D
:100428006AEC02F045EC02F063EC02F0F9EC01F042
:1004380029EC02F0549E03EC01F0BE9E50EC02F051
:10044800BE8E1FEF02F081EF00F0C00EBE16900EB8
:1004580003011A6F540E1B6F000E1F6F010E216FE0
:06046800310E1E6F1200B0
:10047000610060F301F5010E4126000E4222432285
:100480004422610004F4D8F41100000E0401006F4E
:10049000000EC66EA00E00017F6F000E7D6F120071
:1004A000548C54BC56EF02F058EF02F051EF02F0BA
:0204B000120038
:1004B400B196549C010E4926000E4A224B224C222E
:0A04C4001100D68AD68ED68C1200E5
:0604D000AE9011001200C5
:020000040020DA
:10000000FF0FFF0FFF0FFF0FFF0FFF0FFF0FFF0F80
:10001000FF0FFF0FFF0FFF0FFF0FFF0FFF0FFF0F70
:020000040030CA
:0A0000008CFEFFFC9FFFFFFFFFFFD7
:00000001FF
